:10000000803144288531582D7E1480312100901E86
:100010000A280B2816282000EE15901E10281128FB
:1000200016286E159931CC21803140282000EE141D
:100030000B1F1B281C2840282100111C20282128C8
:100040002D2820006E14111C262827282D28210079
:10005000EB179931E821803140282100911C31288B
:1000600032283E286B172000911C372838283E285C
:100070002100EB1698317C208031402821006B163E
:100080002100EB157E1009008031462822009031B6
:1000900000208031EF002000EE01EF01E430840009
:1000A0000030850008308831002080312100EC01CB
:1000B000ED01EE01EF0120308400013085000930B0
:1000C000883100208031573084000130850016309F
:1000D0008831002080312300D401D501D601D70119
:1000E000A030840001308500343088310020803118
:1000F0007E10200085312A2D210039088039BE006C
:100100003E08C3003935BE003E08C900B81F892823
:100110008A288B284914490803198F2890289F287A
:10012000490A031D942895289D280030B900003005
:10013000B8000030B7000030B600B817A72800306C
:10014000B9000030B8000030B7000030B6003D08FC
:100150008039BE003E08C3063D35BE003E08C400DF
:10016000BC1FB328B428B528441444080319B9287F
:10017000BA28C928440A031DBE28BF28C728003052
:10018000BD000030BC000030BB000030BA00BC171E
:10019000D1280030BD000030BC000030BB00003072
:1001A000BA0044080319D528D628DB284908031DBE
:1001B000DA28DB28E4280030B9000030B80000302D
:1001C000B7000030B600D22A3608BE003E08A800AC
:1001D0003C089B310123803121002908CF002808E9
:1001E000CE004E08BE00BF01C001C1014108C800D9
:1001F0004008C7003F08C6003E08C5004F08BE00C3
:10020000BF01C001C1014108CD004008CC003F083A
:10021000CB003E08CA003708BE003E08A8003B08D5
:100220009B310123803121002908CF002808CE000E
:100230004E08BE00BF01C001C1013E08C5073F080E
:10024000C63D4008C73D4108C83D4F08BE00BF013C
:10025000C001C1013E08CA073F08CB3D4008CC3D64
:100260004108CD3D3808BE003E08A8003A089B3141
:100270000123803121002908CF002808CE004E0834
:10028000BE00BF01C001C1013E08C5073F08C63D11
:100290004008C73D4108C83D4F08BE00BF01C0012E
:1002A000C1013E08CA073F08CB3D4008CC3D41088C
:1002B000CD3D0830C535C60DC70DC80D890B5A296F
:1002C0003708BE003E08A8003A089B310123803160
:1002D00021002908CF002808CE004E08C5074F0886
:1002E000C63D0030C73DC83D3608BE003E08A800E8
:1002F0003B089B310123803121002908CF002808C9
:10030000CE004E08C5074F08C63D0030C73DC83D6A
:100310000830C535C60DC70DC80D890B89293608AB
:10032000BE003E08A8003A089B310123803121001D
:100330002908CF002808CE004E08C5074F08C63D43
:100340000030C73DC83D3708BE003E08A8003C0845
:100350009B310123803121002908CF002808CE00DD
:100360004E08CA074F08CB3D0030CC3DCD3D380884
:10037000BE003E08A8003B089B31012380312100CC
:100380002908CF002808CE004E08CA074F08CB3DE9
:100390000030CC3DCD3D3808BE003E08A8003C08EA
:1003A0009B310123803121002908CF002808CE008D
:1003B0004E08BE004F08BF00C001C1010830BE3565
:1003C000BF0DC00DC10D890BDF293E08CA073F08CC
:1003D000CB3D4008CC3D4108CD3D4508BE00460818
:1003E000BF004708C0004808C1001830C136C00C23
:1003F000BF0CBE0C890BF6293E08CA073F08CB3D4F
:100400004008CC3D4108CD3D0830C535C60DC70D6F
:10041000C80D890B052A49084407BE00BF01BF0D5E
:100420003E08823ECE00FF303F3DCF002E2A0130F5
:10043000CA35CB0DCC0DCD0D890B182AC81F212A2A
:10044000222A232A4A140130C535C60DC70DC80D0E
:10045000890B242AFF30CE07FF30CF3DCC1F312A35
:10046000322A172AC401C81F362A372A532AFF30D6
:100470004505BE00FF304605BF00FF304705C00000
:100480007F304805C100410840043F043E04031981
:100490004A2A4B2A4E2AC401C40A532A4A1C512A0A
:1004A000522A532A4B2A44080319572A582A802AC9
:1004B0000130CA070030CB3D0030CC3D0030CD3D8F
:1004C0004D1C632A642A802A4A08BE004B08BF00DC
:1004D0004C08C0004D08C1000130C200C137C00C3B
:1004E000BF0CBE0CC20B6E2A4108CD004008CC00E8
:1004F0003F08CB003E08CA000130CE070030CF3D98
:100500004F08803ABE0080303E02031D892AFF302A
:100510004E02031C8C2A8D2A972A7F302100CD00A1
:100520008030CC000030CB000030CA00C62A210049
:100530004F08803ABE0080303E02031DA12A0130E0
:100540004E020318A42AA52AB02A00302100CD00AB
:100550000030CC000030CB000030CA00C301C62AF6
:1005600021004E08BE003E08C900FF30CA05FF301A
:10057000CB057F30CC050030CD05491CC02AC12AEF
:10058000C22ACC174936BE003E08CD004308BE0043
:100590003E08CD044D08B9004C08B8004B08B70020
:1005A0004A08B6000800200023088039A80028085F
:1005B000AD002335A8002808B300A21FE02AE12AD5
:1005C000E22A331433080319E62AE72AF62A330A03
:1005D000031DEB2AEC2AF42A0030A3000030A2000D
:1005E0000030A1000030A000A217FE2A0030A300B6
:1005F0000030A2000030A1000030A00027088039A0
:10060000A8002808AD062735A8002808B200A61FB4
:100610000A2B0B2B0C2B321432080319102B112B25
:10062000202B320A031D152B162B1E2B0030A70082
:100630000030A6000030A5000030A400A617282B2B
:100640000030A7000030A6000030A5000030A40054
:10065000320803192C2B2D2B322B3308031D312B81
:10066000322B3B2B0030A3000030A2000030A10051
:100670000030A000292D2008A8002808F000260836
:100680009A31BB22823171082000B9007008B8008D
:100690003808A800A901AA01AB012B08B1002A085B
:1006A000B0002908AF002808AE003908A800A90149
:1006B000AA01AB012B08B7002A08B6002908B5002B
:1006C0002808B4002108A8002808F00025089A315D
:1006D000BB22823171082000B9007008B8003808C8
:1006E000A800A901AA01AB012808AE072908AF3D5F
:1006F0002A08B03D2B08B13D3908A800A901AA017C
:10070000AB012808B4072908B53D2A08B63D2B08D7
:10071000B73D2208A8002808F00024089A31BB221F
:10072000823171082000B9007008B8003808A800AC
:10073000A901AA01AB012808AE072908AF3D2A0884
:10074000B03D2B08B13D3908A800A901AA01AB01B1
:100750002808B4072908B53D2A08B63D2B08B73D3F
:100760000830AE35AF0DB00DB10D890BB12B21089E
:10077000A8002808F00024089A31BB2282317108B1
:100780002000B9007008B8003808AE073908AF3D3E
:100790000030B03DB13D2008A8002808F000250831
:1007A0009A31BB22823171082000B9007008B8006C
:1007B0003808AE073908AF3D0030B03DB13D0830D4
:1007C000AE35AF0DB00DB10D890BE02B2008A800A0
:1007D0002808F00024089A31BB22823171082000D9
:1007E000B9007008B8003808AE073908AF3D0030CE
:1007F000B03DB13D2108A8002808F00026089A3134
:10080000BB22823171082000B9007008B800380896
:10081000B4073908B53D0030B63DB73D2208A80001
:100820002808F00025089A31BB2282317108200087
:10083000B9007008B8003808B4073908B53D003071
:10084000B63DB73D2208A8002808F00026089A31D6
:10085000BB22823171082000B9007008B800380846
:10086000A8003908A900AA01AB010830A835A90DD4
:10087000AA0DAB0D890B362C2808B4072908B53D05
:100880002A08B63D2B08B73D2E08A8002F08A9005E
:100890003008AA003108AB001830AB36AA0CA90CFE
:1008A000A80C890B4D2C2808B4072908B53D2A0847
:1008B000B63D2B08B73D0830AE35AF0DB00DB10DCC
:1008C000890B5C2C33083207A800A901A90D280860
:1008D000823EB800FF30293DB900852C0130B43587
:1008E000B50DB60DB70D890B6F2CB11F782C792C77
:1008F0007A2C34140130AE35AF0DB00DB10D890B2B
:100900007B2CFF30B807FF30B93DB61F882C892CEF
:100910006E2CB201B11F8D2C8E2CAA2CFF302E050F
:10092000A800FF302F05A900FF303005AA007F3056
:100930003105AB002B082A04290428040319A12C33
:10094000A22CA52CB201B20AAA2C341CA82CA92CCA
:10095000AA2CA22C32080319AE2CAF2CD72C0130B4
:10096000B4070030B53D0030B63D0030B73D371C10
:10097000BA2CBB2CD72C3408A8003508A90036089F
:10098000AA003708AB000130AC00AB37AA0CA90CA9
:10099000A80CAC0BC52C2B08B7002A08B6002908F8
:1009A000B5002808B4000130B8070030B93D390857
:1009B000803AA80080302802031DE02CFF30380266
:1009C000031CE32CE42CEE2C7F302000B700803099
:1009D000B6000030B5000030B4001D2D20003908ED
:1009E000803AA80080302802031DF82C013038021C
:1009F0000318FB2CFC2C072D00302000B700003022
:100A0000B6000030B5000030B400AD011D2D20004F
:100A10003808A8002808B300FF30B405FF30B5053A
:100A20007F30B6050030B705331C172D182D192D52
:100A3000B6173336A8002808B7002D08A8002808E4
:100A4000B7043708A3003608A2003508A10034080F
:100A5000A00008009C314424853105302100A80005
:100A60000030A9009A317822853114302200C40068
:100A7000A230C500310014082200D300D40153086D
:100A8000C6005408C700310013082200D500D60163
:100A90005508C8005608C90085309831CF28A731BD
:100AA000EF278531A7317C27853102309131A42988
:100AB0009A31DE22853151302100A8001430A9007E
:100AC000A7311F2785318F302100A8001330A900DE
:100AD000A7312A27853189309031472822004F08D5
:100AE000D30053082400B300E22EA7313527853107
:100AF000003A03197C2D7D2D842D2100E71500304F
:100B0000A631BD2685318A2D210067150130A63119
:100B1000BD2685319E319A26853102302400330668
:100B2000031D932D942DB22D0230A631BD268531A3
:100B300021001110A92D8831062085312100E714EC
:100B40008B309031472822004F08D30053082400EF
:100B5000B30024003303031DAE2DAF2D9B2D2100C8
:100B60006714111400302400AE000030AD000030D6
:100B7000AC000030AB0001302400AB070030AC3DCE
:100B80000030AD3D0030AE3D2100E61724002E08B8
:100B9000031DD52D2D08031DD52D10302B02273018
:100BA0002C3B031CD42DD52DBB2DF92E983169205B
:100BB000853121002B082400A50021002A082400EB
:100BC000A400210029082400A300210028082400F3
:100BD000A2009C31A2248531023024003306031D7B
:100BE000F22DF32D162E98316920853121002B0826
:100BF0002400B20021002A082400B10021002908A5
:100C00002400B000210028082400AF002100C10109
:100C10002F30C2000230C3007B308A316B2A2100A2
:100C200066170230A631BD268531F92E3303031D28
:100C30001A2E1B2E312E2100E61624002508210035
:100C4000AB00240024082100AA002400230821006E
:100C5000A900240022082100A800983144208531F1
:100C6000F92E210066160130A631BD268531F92EF8
:100C7000A731DE27853121002B082400A90021009F
:100C80002A082400A800210029082400A700210028
:100C900028082400A6009E31ED268531023024006C
:100CA0003306031D542E552E7C2EA731DE278531A9
:100CB00021002B082400B20021002A082400B100E2
:100CC000210029082400B000210028082400AF00DA
:100CD00002302200D30053082100C1002F30C2008F
:100CE0000230C3007D308A316B2A2100E6150230C4
:100CF000A631BD268531F92E3303031D802E812EAA
:100D0000972E21006615240029082100AB0024003D
:100D100028082100AA00240027082100A900240097
:100D200026082100A800983132208531F92E2100B3
:100D3000E6140130A631BD268531F92EA63176267E
:100D400085312200D30053082400AA009B3171236F
:100D50008531023024003306031DAF2EB02EC42E81
:100D6000A631762685312100C101C10A2F30C2008B
:100D70000230C3007F308A316B2A210066140230B2
:100D8000A631BD268531F92E3303031DC82EC92E89
:100D9000D12E2100E51724002A08A631AA26853184
:100DA000F92E210065170130A631BD268531F92EB7
:100DB0002100E5163030BB00A230BC0000309A3173
:100DC000992AF92E22005F08D300D4015408003A72
:100DD0000319EB2ED82E5308003A0319752D013A4A
:100DE0000319D62D033A0319382E013A03199E2E02
:100DF000D82E2100651624003303031D002F012F78
:100E00006B2D2100E515A731882785316B2D8031A9
:100E100044282000DF004E0886004F088700403F2E
:100E2000D200413FD30052088400530885001200CD
:100E3000253A031D1C2F1D2FD52F4E0886004F0865
:100E400087000130810741310318810A2300A60180
:100E5000A7012100EC01ED01FF302200DA00FF3094
:100E6000DB0020004E0886004F088700403FD2007C
:100E7000413FD30052088400530885001200643AB1
:100E80000319432F442F562F4E0886004F08870022
:100E9000403FD200413FD3005208840053088500F0
:100EA0001200693A031D552F562F9D2F4E088600BC
:100EB0004F0887000130810741310318810A50082B
:100EC0008600510887000108D200023081074131B5
:100ED0000108D30000300318810A810752088600F8
:100EE00053088700403FD400413FD5005408D70045
:100EF0005508D800890D893B8909D900DA00DB0043
:100F0000DC00DD00DE005708B0005808B1005908C9
:100F1000B2005A08B3005B08B4005C08B5005D0875
:100F2000B6005E08B7005F088C31FE2487312000D0
:100F30003108CF003008CE00FA2F4E0886004F0847
:100F40008700403FD200413FD3005208840053083D
:100F500085001200253A031DAE2FAF2FC92F4E0872
:100F600086004F0887000130810741310318810A4C
:100F70002530F2000030F3005F08D2005208F40080
:100F800090310120873101302000CE000030CF00A9
:100F9000FA2F4E0886004F08870001308107413143
:100FA0000318810ACE01CF01FA2F4E0886004F08A0
:100FB0008700403FD200413FD300520884005308CD
:100FC00085000008D400D5015408F2005508F3004C
:100FD0005F08D6005608F4009031012087312000C8
:100FE0004E0886004F088700013081074131031801
:100FF000810AC32F08001630210097006B140800E7
:10100000640080010131890B012800346530220021
:101010005D02031C0C280D2853286F0803191128A2
:1010200012281928A41501302100AC002C08EE0765
:101030001D28241501302100EE026E0A031D21280F
:10104000222826282200A414EF013228220024148A
:1010500021006E08031D2D282E2832282200A317F8
:10106000EF01EF0A2200DD0121006E08A63199266A
:1010700088312200231721006E08AC00AD01AC3589
:10108000AD0DAC35AD0D2C08013EAE0000302D3D50
:10109000AF00AF36AE0C2E08A8002F08A90099317A
:1010A000B12188315A28A31601302100AC002C0848
:1010B0002200DD072200231608002100BA01A83013
:1010C000860000308700473FB800B81F68286928AD
:1010D0008B282100A809A909AA09AB09AC09AD0907
:1010E000AE09AF09A80A031D8828A90A031D88288C
:1010F000AA0A031D8828AB0A031D8828AC0A031D11
:101100008828AD0A031D8828AE0A031D8828AF0A67
:101110002100BA01BA0AB030860000308700473F8C
:101120002100B800B81F95289628BA282100B009D8
:10113000B109B209B309B409B509B609B709B00ACA
:10114000031DB528B10A031DB528B20A031DB52831
:10115000B30A031DB528B40A031DB528B50A031D3B
:10116000B528B60A031DB528B70A01302100B8001A
:101170003808BA06BB3086000030870008302100EE
:10118000B80000301E00B80BC228280829042A0421
:101190002B042C042D042E042F040319D028D1284D
:1011A0002D29B901B90AE028A835A90DAA0DAB0D62
:1011B000AC0DAD0DAE0DAF0D0130B8003808B9075C
:1011C000AF1FE328E428D428BB35BC0DBD0DBE0DF0
:1011D000BF0DC00DC10DC20D2F083702031D0A2916
:1011E0002E083602031D0A292D083502031D0A297F
:1011F0002C083402031D0A292B083302031D0A2977
:101200002A083202031D0A2929083102031D0A296E
:1012100028083002031C0D290E291F292808B002B6
:101220002908B13B2A08B23B2B08B33B2C08B43B3E
:101230002D08B53B2E08B63B2F08B73B3B14AF3605
:10124000AE0CAD0CAC0CAB0CAA0CA90CA80C01306C
:10125000B902031D2C292D29E4283A080319312944
:1012600032295029BB09BC09BD09BE09BF09C00903
:10127000C109C209BB0A031D5029BC0A031D50291C
:10128000BD0A031D5029BE0A031D5029BF0A031DB4
:101290005029C00A031D5029C10A031D5029C20A42
:1012A00021003B08A8003C08A9003D08AA003E0810
:1012B000AB003F08AC004008AD004108AE0042085A
:1012C000AF0008002200AC002A0886000130870029
:1012D000403FAD00413FAE002D0884002E08850040
:1012E0001200253A031D752976293E2A2A08860010
:1012F000013087000130810741310318810A230042
:10130000A601A7012100EC01ED01FF302200DA0067
:10131000FF30DB002A08860001308700403FAD0027
:10132000413FAE002D0884002E0885001200643A6B
:1013300003199B299C29AE292A08860001308700C1
:10134000403FAD00413FAE002D0884002E088500CF
:101350001200693A031DAD29AE29032A2A08860026
:10136000013087000130810741310318810A2B08C1
:1013700086000130870001088400013085000230BA
:101380008107003FAD00013FAE002D08B2002E08DE
:10139000B300890D893B8909B400B500B600B700D8
:1013A000B800B9002908AD002D082100C5002200B1
:1013B00032082100C600220033082100C7002200A5
:1013C00034082100C800220035082100C90022008D
:1013D00036082100CA00220037082100CB00220075
:1013E00038082100CC00220039082100CD009730B8
:1013F0008B318D2B210046082200AA0021004508D0
:101400002200A900682A2A08860001308700403F90
:10141000AD00413FAE002D0884002E08850012006B
:10142000253A031D142A152A322A2A08860001307B
:1014300087000130810741310318810A25302100DE
:10144000AA000030AB0022002908AD002D082100C1
:10145000AC009D31B925893101302200A90000304E
:10146000AA00682A2A088600013087000130810717
:1014700041310318810AA901AA01682A2A088600B5
:1014800001308700403FAD00413FAE002D08840091
:101490002E0885000008AF00B0012F082100AA0027
:1014A000220030082100AB0022002908B1003108D9
:1014B0002100AC009D31B925893122002A0886001F
:1014C000013087000130810741310318810A2C2A3D
:1014D000A2312C0882002100C400742B1030CB00F4
:1014E0007030CC004208860043088700403FCD00A2
:1014F000413FCE00423FCF00433FD000C8014808E3
:101500004B07A8004C0803184C0AA9004808CD3E18
:10151000860087010108C5004508AA009B312523E4
:101520008A31210048084B07C5004C0803184C0AB3
:10153000C6004508E03EA8000030463DA900480826
:10154000CD3E860087010108C7004708AA009B31ED
:1015500025238A3101302100C5004508C807220033
:101560002114043021004802031CB72AB82A7F2A1C
:101570002200A017D7302100BB00A030BC000230F1
:101580009A31992A872B2030CB007030CC0042084A
:10159000860043088700403FCD00413FCE00C9018F
:1015A00049084B07A8004C0803184C0AA900490831
:1015B000CD3E860087010108C5004508AA009B3181
:1015C00025238A31210049084B07C5004C08031820
:1015D0004C0AC6004508E03EA8000030463DA90080
:1015E0004908CD3E860087010108C7004708AA00C8
:1015F0009B3125238A3101302100C5004508C907E8
:1016000022002017023021004902031C082B092B5D
:10161000D02A2200A0168A302100BB00A030BC00D6
:1016200004309A31992A872B3030CB007030CC00AF
:101630004208860043088700403FCD00413FCE006E
:10164000423FCF00433FD000CA014A084B07A800E1
:101650004C0803184C0AA9004A08CD3E86008701B1
:101660000108C5004508AA009B3125238A312100C5
:101670004A084B07C5004C0803184C0AC600450829
:10168000E03EA8000030463DA9004A08CD3E860055
:1016900087010108C7004708AA009B3125238A312A
:1016A00001302100C5004508CA0722002016043079
:1016B00021004A02031C5D2B5E2B252B2200A01566
:1016C0001D302100BB00A130BC0006309A31992AA0
:1016D000872B2200201500302100BB00A030BC0069
:1016E00008309A31992A872B4108C500C60146085F
:1016F000003A03197C2B692B4508003A03196E2A1E
:10170000013A0319C32A033A0319142B692B220047
:10171000A0142100A231440882002100CE00460816
:10172000DA004708DB004808DC004908DD004A0809
:10173000DE004B08DF004C08E0004D08E100DA3025
:10174000860000308700473FCF00CF1BA82BAA2B75
:101750000130AB2B00302100D000D1015008D8005F
:101760005108D900580859040319B72BB82BD62BA8
:10177000DA09DB09DC09DD09DE09DF09E009E10935
:10178000DA0A031DD62BDB0A031DD62BDC0A031D48
:10179000D62BDD0A031DD62BDE0A031DD62BDF0A4E
:1017A000031DD62BE00A031DD62BE10A2200DB1B0A
:1017B000DA2BDB2BE02BFD302100EC05FF30ED05B3
:1017C00022005B08803A2100CF0080304F02031DC9
:1017D000EC2B013022005A020318EF2BF02BF62BD2
:1017E00001302100D4000030D500FE2B22005B0820
:1017F0002100D50022005A082100D4002300270828
:101800002100D700230026082100D60058085904DB
:10181000031D0B2C0C2C102C6C1D0F2C102C142CBD
:10182000FF30D607FF30D73D1F30E2000030E30025
:101830002300C901842CFF302100E207FF30E33D83
:101840000A30A800A901AA01AB01AC01AD01AE01AB
:10185000AF015A08B0005B08B1005C08B2005D0837
:10186000B3005E08B4005F08B5006008B600610808
:10187000B700963112268B3121002908BC002808B8
:10188000BB009A3104228B3121003B08303ECF004F
:101890006208AA3E8600013087004F088100FF30B1
:1018A000D407FF30D53DFF30D607FF30D73D0A3093
:1018B000A800A901AA01AB01AC01AD01AE01AF01C5
:1018C0005A08B0005B08B1005C08B2005D08B300C4
:1018D0005E08B4005F08B5006008B6006108B70094
:1018E00088315D208B3121002808DA002908DB00CF
:1018F0002A08DC002B08DD002C08DE002D08DF00A4
:101900002E08E0002F08E10021006308803ACF0094
:1019100080304F02031D8E2C01306202031C912C7B
:10192000922CBF2C21005A085B045C045D045E0409
:101930005F0460046104031D9E2C9F2C1B2C550822
:10194000803ACF0080304F02031DA82C0130540292
:101950000318AB2CAC2C1B2C21005708803ACF006D
:1019600080304F02031DB62C01305602031CB92CE7
:10197000BA2CBF2C2100EC18BE2CBF2C1B2C210034
:1019800058085904031DC52CC62CCA2C6C1DC92C23
:10199000CA2CE62CFF30E207FF30E33D580859041B
:1019A000031DD32CD42CD92C2B30D2000030D300E3
:1019B000DD2C2D30D2000030D3005208CF00620859
:1019C000AA3E8600013087004F0881004508CF00FD
:1019D0004F08BB006208AA3ED0005008BC00570860
:1019E000BE005608BD0099309F31432F21003C08AE
:1019F000C6003B08C500A2314E0882002000BB0093
:101A00003008C4003108C5003208C6003308C700DA
:101A10003408C8003508C9003608CA003708CB00AA
:101A20004430860000308700473FB800B81B192DAE
:101A30001B2D01301C2D00302000B900BA013908DF
:101A4000C2003A08C300420843040319282D292D77
:101A5000472DC409C509C609C709C809C909CA0962
:101A6000CB09C40A031D472DC50A031D472DC60A0D
:101A7000031D472DC70A031D472DC80A031D472D07
:101A8000C90A031D472DCA0A031D472DCB0A220090
:101A9000DB1B4B2D4C2D512DFD302100EC05FF3073
:101AA000ED0522005B08803A2000B8008030380243
:101AB000031D5D2D013022005A020318602D612D97
:101AC000672D01302000BE000030BF006F2D2200C6
:101AD0005B082000BF0022005A082000BE0023003F
:101AE00027082000C100230026082000C00042086B
:101AF0004304031D7C2D7D2D822D21006C1D812D25
:101B0000822D872DFF302000C007FF30C13D1F30E0
:101B10002000CC000030CD002300C901F82DFF309B
:101B20002000CC07FF30CD3D0A30A000A101A2016A
:101B3000A301A401A501A601A7014408A800450826
:101B4000A9004608AA004708AB004808AC004908AD
:101B5000AD004A08AE004B08AF00953128258C3106
:101B600020002108F4002008F30099312C218C3149
:101B70007308303E2000B8004C08AA3E86000130B1
:101B8000870038088100FF30BE07FF30BF3DFF30BF
:101B9000C007FF30C13D0A30A000A101A201A3018E
:101BA000A401A501A601A7014408A8004508A900B1
:101BB0004608AA004708AB004808AC004908AD0039
:101BC0004A08AE004B08AF009631FF268C3120004A
:101BD0002008C4002108C5002208C6002308C70049
:101BE0002408C8002508C9002608CA002708CB0019
:101BF00020004D08803AB80080303802031D022EC4
:101C000001304C02031C052E062E332E2000440802
:101C1000450446044704480449044A044B04031D90
:101C2000122E132E8F2D3F08803AB80080303802D4
:101C3000031D1C2E01303E0203181F2E202E8F2D57
:101C400020004108803AB80080303802031D2A2E57
:101C500001304002031C2D2E2E2E332E2100EC18B5
:101C6000322E332E8F2D200042084304031D392EBF
:101C70003A2E3F2E21006C1D3E2E3F2E5C2EFF3053
:101C80002000CC07FF30CD3D42084304031D492E00
:101C90004A2E4F2E2B30BC000030BD00532E2D306D
:101CA000BC000030BD003C08B8004C08AA3E8600CD
:101CB000013087003808810020004C08AA3EB80097
:101CC0003808A6004108A8004008A7003B089F313B
:101CD000A1278C3120002708B1002608B000080099
:101CE0002100C300C901E22F1030D4007030D500AC
:101CF000CE014E085407A80055080318550AA9003C
:101D0000983121208E312100C4004E08D63E860035
:101D10008701440881000130C4004408CE07220036
:101D20002314043021004E02031C972E982E792E86
:101D30005908CD005808CC005708CB005608CA00F7
:101D4000CF014F085407C40055080318550AC500B1
:101D50004408E03EA8000030453DA900983121200C
:101D60008E312100C6004F08D63E86008701460806
:101D700081000130C4004408CF072200A2170430BC
:101D800021004F02031CC52EC62EA12E22002217B1
:101D900021005908AB005808AA005708A9005608A6
:101DA000A8004D08AF004C08AE004B08AD004A0833
:101DB000AC009E314B268E310318DF2EE02EE62E2E
:101DC0002200A2169130A731AE2FF52F2200221645
:101DD0005F302100BB00A130BC000A309A31992A43
:101DE0002200A215D6302100C4004408C900F52FF6
:101DF0002030D4007030D500D00150085407A8001E
:101E000055080318550AA900983121208E31210068
:101E1000C4005008D63E8600870144088100013086
:101E2000C4004408D00722002215023021005002CD
:101E3000031C1B2F1C2FFD2E5708C8005608C70077
:101E4000D10151085407C40055080318550AC500AC
:101E50004408E03EA8000030453DA900983121200B
:101E60008E312100C6005108D63E86008701460803
:101E700081000130C4004408D1072200A2140230BE
:101E800021005102031C452F462F212F220022142E
:101E9000210048085706031D4F2F4708560603190F
:101EA000522F532F542FE02E2200A1173E30210035
:101EB000BB00A130BC000C309A31992AF02E303092
:101EC000D4007030D500D20152085407A80055083C
:101ED0000318550AA900983121208E312100C40031
:101EE0005208D63E86008701440881000130C400B4
:101EF0004408D20722002117043021005202031C9B
:101F0000822F832F642F5908CD005808CC00570822
:101F1000CB005608CA00D30153085407C400550823
:101F20000318550AC5004408E03EA8000030453DAE
:101F3000A900983121208E312100C6005308D63ED9
:101F400086008701460881000130C4004408D30799
:101F50002200A116043021005302031CB02FB12F20
:101F60008C2F2200211621005908AB005808AA0026
:101F70005708A9005608A8004D08AF004C08AE004D
:101F80004B08AD004A08AC009E314B268E31031839
:101F9000CA2FCB2FCC2FE02E2200A1159F3021007D
:101FA000BB00A130BC000E309A31992AF02E2200DD
:101FB000211500302100BB00A030BC0010309A3148
:101FC000992AF52F4208C400C5014508003A0319B3
:101FD000EA2FD72F4408003A0319742E013A031947
:101FE000F82E033A03195F2FD72F21004908C400A8
:101FF0004408C2002200A1142100A231430882003B
:10200000013474080319052806280B287408031DD9
:102010000A280B2810287208A631812690313F2803
:102020007408033E8600870116000104031919286D
:102030001A2837287408033E86008701403FF500C0
:10204000413FF600740A86008701403FF700413F98
:10205000F8007808803AF9007608803A7902031D82
:102060003328750877020318362837283F28740A62
:10207000860087010130810741310318810A720807
:10208000F500F6017508F2007608F300080022005A
:10209000D000A631B32690312200D1005108D700DC
:1020A0005703031D542855287F284B302100BB00BF
:1020B000A230BC0014309A31992A2200590A031D1B
:1020C000622863286C282715FB302100BB00A03054
:1020D000BC0016309A31992A1E3022005902031C86
:1020E000722873287928A7140230D1005108D8002B
:1020F000B12827140130D1005108D907B128570859
:10210000031D83288428A8280A305902031C892823
:102110008A288E28A617D801D80A96282617590883
:10212000031D932894289628A616D801BD30C40014
:10213000A130C5005908D100D2015108C60052088B
:10214000C70087309831CF2822002616D901B12840
:10215000A61580302100BB00A130BC0018309A3198
:10216000992A22005808D1005108CF002615A23123
:1021700050088200031020003C0D3D0DBE003E08BB
:10218000C4004408031DC528C628CF280030BD0060
:102190000030BC000030BB000030BA002E293A08E5
:1021A000BE003B08BF003C08C0003D08C1001F3016
:1021B000C136C00CBF0CBE0C890BD8283E08C2002B
:1021C0004208C300BC17FF30BA05FF30BB05FF3023
:1021D000BC050030BD059630C402C41FF028F128AC
:1021E00009294408803A973E0318F728F828F92867
:1021F000C6280130BD36BC0CBB0CBA0C890BFA28C2
:102200000130BE003E08C407031D07290829F9282C
:102210001E2920304402031C0E290F291929C62823
:102220000130BA35BB0DBC0DBD0D890B1129013034
:10223000C4024408031D1D291E291029430803193F
:10224000222923292E29BA09BB09BC09BD09BA0ACA
:102250000319BB0A0319BC0A0319BD0A08000310BD
:102260002100520D530DD4005408DA005A08031D02
:102270003A293B2944290030D3000030D2000030F5
:10228000D1000030D000A3295008D4005108D50057
:102290005208D6005308D7001F30D736D60CD50CBD
:1022A000D40C890B4D295408D8005808D900D217EE
:1022B000FF30D005FF30D105FF30D2050030D30507
:1022C0009630DA02DA1F652966297E295A08803A93
:1022D000973E03186C296D296E293B290130D336AE
:1022E000D20CD10CD00C890B6F290130D4005408CA
:1022F000DA07031D7C297D296E29932920305A0293
:10230000031C832984298E293B290130D035D10D26
:10231000D20DD30D890B86290130DA025A08031D2C
:102320009229932985295908031997299829A329BE
:10233000D009D109D209D309D00A0319D10A031946
:10234000D20A0319D30A08002100DA00C2018D3035
:102350008E31702E21004208DB005B08DC005C0837
:1023600086008701403F2200E100413FE200423FFA
:10237000E300433FE40064082100AB00220063084F
:102380002100AA00220062082100A90022006108A1
:102390002100A8000030AF000030AE000030AD00DA
:1023A0000030AC009E314B2691310318D829D92931
:1023B000FB293F302200E4008030E3000030E200DF
:1023C0000030E10021005C08860087010030C03F3A
:1023D0000030C13F8030C23F3F30C33F220026144F
:1023E0002100C1015C08C200FF39031D0030C30099
:1023F00081308A316B2A2100C201C20A8F308E31AE
:10240000702E21004208DB005B08DC005C088600BF
:1024100087010108DB005B082200E500650803195D
:10242000122A132A292AE50121005C088600870167
:102430000030C03FC13F2200A5172100C101C10AE1
:102440005C08C200FF39031D0030C30083308A31AD
:102450006B2A2200E601E701E801E901EA01EB014C
:10246000EC012517210080315A088200F800780815
:1024700003193B2A3C2A502AF31F3F2A402A502A9C
:102480007009FA007109FB007209FC007309FD0074
:10249000FA0A0319FB0A0319FC0A0319FD0A582A50
:1024A0007308FD007208FC007108FB007008FA0058
:1024B0007308720471047004031D5F2A602A692A7C
:1024C0000030F3000030F2000030F1000030F00086
:1024D000E12A9630F4007408F900792A0130F400FA
:1024E0007408F9070130FD36FC0CFB0CFA0C890B63
:1024F000732AFE307D05031D7E2A7F2A6E2A932AC9
:102500000130F4007408F9070130FA070030FB3D90
:102510000030FC3D0030FD3D0130FD36FC0CFB0C75
:10252000FA0C890B8D2AFF307D05031D982A992A04
:10253000802AA32A0130F9020130FA35FB0DFC0D87
:10254000FD0D890B9D2AFC1BA62AA72AAD2A023065
:1025500079020318AC2AAD2A9A2A7918B02AB12A2E
:10256000B92AFF30FA05FF30FB057F30FC05FF304C
:10257000FD050310F90C7908F400F501F601F701E7
:102580001830F435F50DF60DF70D890BC12A7408D6
:10259000FA047508FB047608FC047708FD04780843
:1025A0000319D32AD42AD92AF31FD72AD82AD92AF9
:1025B000FD177D08F3007C08F2007B08F1007A0823
:1025C000F00008002100B00030080319E82AE92AC9
:1025D000FD2AAB1FEC2AED2AFD2A2809B2002909A1
:1025E000B3002A09B4002B09B500B20A0319B30AD3
:1025F0000319B40A0319B50A052B2B08B5002A08DC
:10260000B4002908B3002808B2002B082A042904C2
:102610002804031D0C2B0D2B162B0030AB000030B3
:10262000AA000030A9000030A8008E2B9630AC0024
:102630002C08B100262B0130AC002C08B10701306A
:10264000B536B40CB30CB20C890B202BFE3035051B
:10265000031D2B2B2C2B1B2B402B0130AC002C08EB
:10266000B1070130B2070030B33D0030B43D003057
:10267000B53D0130B536B40CB30CB20C890B3A2B16
:10268000FF303505031D452B462B2D2B502B0130DC
:10269000B1020130B235B30DB40DB50D890B4A2B23
:1026A000B41B532B542B5A2B023031020318592BD5
:1026B0005A2B472B31185D2B5E2B662BFF30B20552
:1026C000FF30B3057F30B405FF30B5050310B10C02
:1026D0003108AC00AD01AE01AF011830AC35AD0D25
:1026E000AE0DAF0D890B6E2B2C08B2042D08B30470
:1026F0002E08B4042F08B50430080319802B812B51
:10270000862BAB1F842B852B862BB5173508AB008A
:102710003408AA003308A9003208A8000800392CA0
:102720002100641623002108031D972B982B9D2B55
:102730002100E415A631892693312100EF016415AB
:102740002200DE014E2C21006F08031DA82BA92BAF
:10275000BB2BE41423002103031DAF2BB02BBB2B99
:1027600098311A2093312100641432302000AB00DC
:102770002B082200DE0023002108031DC02BC12BE3
:10278000D62B2200A8175E0821006F02031CC92B5C
:10279000CA2BD62BA6318926933122002817143054
:1027A0002000AB002B082200DE000B2C2200A81614
:1027B00023002103031DDD2BDE2B0B2C220028160A
:1027C0005E0821006F02031CE62BE72B0B2C9831CF
:1027D0001A20933101302000AB002B082300A307FF
:1027E0002100EF01230022082302031CF82BF92B00
:1027F000032CA3012200A81532302000AB002B08C7
:102800002200DE000B2C220028150A302000AB002D
:102810002B082200DE0021006F0A031D102C112C52
:102820001C2C2200A814DA302000A600A130A7003A
:102830009A315A2293314E2C220028140130200064
:10284000AB002B082100EF074E2C2200A717983170
:10285000B92093319D2B6430A600A230A7009A3195
:102860005A229331220027170230A6319126933144
:102870004E2C230020082000AB00AC012C08003AAD
:102880000319432C2B2C2B08003A0319252C013A51
:102890000319A32B033A0319902B2B2C2200A71604
:1028A0000800200016082200E7002000150822007A
:1028B000E600A631D2269431A73140279431003A60
:1028C0000319632C642C0B2D220065082100A40041
:1028D000A50122006608F0006708F100F201F3018B
:1028E000003092313622943173082000A70072081C
:1028F000A6007108A5007008A4002200640820004A
:10290000A300220063082000A20022006208200029
:10291000A100220061082000A0008231D32294315E
:1029200020002308BD002208BC002108BB002008AD
:10293000BA009031BA2094312100240820003A07CF
:102940002200EB002100250820003B3D2200EC0086
:102950000A30613E860001308700403F2100A4001C
:10296000413FA500A536A40C2408A6002608220095
:10297000EA006A08A6317A26943122006A0821000A
:10298000A400A501A435A50DA435A50D2408013E7C
:10299000A6000030253DA700A736A60C2608220079
:1029A000E800210027082200E9006908F100680812
:1029B000F0009831FB20943100302000E800A8306E
:1029C000E90022006C082000EB0022006B082000C8
:1029D000EA0022006A082100A400A50124082000C2
:1029E000EC00210025082000ED009831562094319C
:1029F0002200A4170D302000E800A830E9002200D2
:102A000069082000EB00220068082000EA009831E5
:102A100056209431252D220024176B086C040319CD
:102A2000122D132D252DE801E901EB01EC01EA013E
:102A30006A08A6317A2694312200A4166908F100AA
:102A40006808F0009831FB20943122002416080019
:102A5000F2012830860000308700473FF000F01F69
:102A6000322D332D542D2000A809A909AA09AB093C
:102A7000AC09AD09AE09AF09A80A031D522DA90A78
:102A8000031D522DAA0A031D522DAB0A031D522D00
:102A9000AC0A031D522DAD0A031D522DAE0A031DB3
:102AA000522DAF0AF201F20A203086000030870072
:102AB000473FF000F01F5D2D5E2D7D2D2000A00909
:102AC000A109A209A309A409A509A609A709A00AA1
:102AD000031D7D2DA10A031D7D2DA20A031D7D2D41
:102AE000A30A031D7D2DA40A031D7D2DA50A031D28
:102AF0007D2DA60A031D7D2DA70A20002008210494
:102B00002204230424042504260427040319892D00
:102B10008A2DDD2DF101F10A992DA035A10DA20D0F
:102B2000A30DA40DA50DA60DA70D0130F000700892
:102B3000F107A71F9C2D9D2D8D2D27082F02031D0A
:102B4000BB2D26082E02031DBB2D25082D02031DBB
:102B5000BB2D24082C02031DBB2D23082B02031DB3
:102B6000BB2D22082A02031DBB2D21082902031DAB
:102B7000BB2D20082802031CBE2DBF2DCF2D200801
:102B8000A8022108A93B2208AA3B2308AB3B240842
:102B9000AC3B2508AD3B2608AE3B2708AF3BA7362C
:102BA000A60CA50CA40CA30CA20CA10CA00C01302B
:102BB000F102031DDC2DDD2D9D2D72080319E12D81
:102BC000E22D002EA809A909AA09AB09AC09AD0993
:102BD000AE09AF09A80A031D002EA90A031D002E85
:102BE000AA0A031D002EAB0A031D002EAC0A031D0A
:102BF000002EAD0A031D002EAE0A031D002EAF0AE3
:102C000020002808A0002908A1002A08A2002B08FB
:102C1000A3002C08A4002D08A5002E08A6002F084C
:102C2000A70008002100BA01B030860000308700FC
:102C3000473FB800B81F1D2E1E2E402E2100B009A0
:102C4000B109B209B309B409B509B609B709B00A9F
:102C5000031D3D2EB10A031D3D2EB20A031D3D2E5C
:102C6000B30A031D3D2EB40A031D3D2EB50A031DF4
:102C70003D2EB60A031D3D2EB70A2100BA01BA0A3D
:102C8000A830860000308700473F2100B800B81FF9
:102C90004A2E4B2E6A2E2100A809A909AA09AB09C0
:102CA000AC09AD09AE09AF09A80A031D6A2EA90A2D
:102CB000031D6A2EAA0A031D6A2EAB0A031D6A2E83
:102CC000AC0A031D6A2EAD0A031D6A2EAE0A031D4F
:102CD0006A2EAF0A2100280829042A042B042C0498
:102CE0002D042E042F040319762E772ECA2EB90137
:102CF000B90A862EA835A90DAA0DAB0DAC0DAD0DE8
:102D0000AE0DAF0D0130B8003808B907AF1F892EDE
:102D10008A2E7A2E2F083702031DA82E2E0836027F
:102D2000031DA82E2D083502031DA82E2C083402E1
:102D3000031DA82E2B083302031DA82E2A083202D9
:102D4000031DA82E29083102031DA82E28083002D1
:102D5000031CAB2EAC2EBC2E2808B0022908B13BB8
:102D60002A08B23B2B08B33B2C08B43B2D08B53BDB
:102D70002E08B63B2F08B73BAF36AE0CAD0CAC0CF3
:102D8000AB0CAA0CA90CA80C0130B902031DC92E6A
:102D9000CA2E8A2E3A080319CE2ECF2EED2EB00958
:102DA000B109B209B309B409B509B609B709B00A3E
:102DB000031DED2EB10A031DED2EB20A031DED2EEB
:102DC000B30A031DED2EB40A031DED2EB50A031D33
:102DD000ED2EB60A031DED2EB70A21003008A8001B
:102DE0003108A9003208AA003308AB003408AC004F
:102DF0003508AD003608AE003708AF000800F20114
:102E00002030860000308700473FF000F01F092F78
:102E10000A2F2B2F2000A009A109A209A309A409A8
:102E2000A509A609A709A00A031D292FA10A031DA8
:102E3000292FA20A031D292FA30A031D292FA40A43
:102E4000031D292FA50A031D292FA60A031D292FBB
:102E5000A70AF201F20A2830860000308700473FB7
:102E6000F000F01F342F352F582F2000A809A90992
:102E7000AA09AB09AC09AD09AE09AF09A80A031D3F
:102E8000542FA90A031D542FAA0A031D542FAB0A5D
:102E9000031D542FAC0A031D542FAD0A031D542FDC
:102EA000AE0A031D542FAF0A0130F0007008F2067D
:102EB00073308600003087000830F00000301E00BC
:102EC000F00B5F2F20002008210422042304240497
:102ED00025042604270403196E2F6F2FCB2FF10131
:102EE000F10A7E2FA035A10DA20DA30DA40DA50DF5
:102EF000A60DA70D0130F0007008F107A71F812F64
:102F0000822F722FF335F40DF50DF60DF70DF80D38
:102F1000F90DFA0D27082F02031DA82F26082E02EF
:102F2000031DA82F25082D02031DA82F24082C02FD
:102F3000031DA82F23082B02031DA82F22082A02F5
:102F4000031DA82F21082902031DA82F20082802ED
:102F5000031CAB2FAC2FBD2F2008A8022108A93BD2
:102F60002208AA3B2308AB3B2408AC3B2508AD3B19
:102F70002608AE3B2708AF3B7314A736A60CA50C5A
:102F8000A40CA30CA20CA10CA00C0130F102031D97
:102F9000CA2FCB2F822F72080319CF2FD02FEE2FDD
:102FA000F309F409F509F609F709F809F909FA0925
:102FB000F30A031DEE2FF40A031DEE2FF50A031D7D
:102FC000EE2FF60A031DEE2FF70A031DEE2FF80A67
:102FD000031DEE2FF90A031DEE2FFA0A73082000D5
:102FE000A0007408A1007508A2007608A300770865
:102FF000A4007808A5007908A6007A08A7000800B0
:103000008631E12E8A31C22A8B31132B8B31682B0A
:103010008B31732B8E31F02E8F315E2F8F31D62F67
:103020008F31E12FA731B72F90315D2890316C2877
:103030009031B12822000C122300A1012100641755
:1030400008002100290831009200210028083100E1
:10305000910015171514000000003100130821001D
:103060006A16080021002B082300D10021002A083D
:103070002300D000210029082300CF0021002808C8
:103080002300CE005417080021002B082200E40082
:1030900021002A082200E300210029082200E20082
:1030A000210028082200E100251608006A302100CE
:1030B000A2000030A30020006908E1006808E000D9
:1030C000A230E2000030E30000309C3171249831DE
:1030D0000800220064082100AB00220063082100E0
:1030E000AA00220062082100A90022006108210034
:1030F000A8002200A51608002000911023005808FF
:1031000059040319842885288D2821006815230077
:1031100059088A0058080A0098312100E81408006C
:103120007C3020009E009D019110210091146F3091
:10313000A8002630A900A7312A2798314F30200057
:103140009F002100E815080028009401E03092005B
:10315000910120001312280012082300DB00280030
:1031600011082300DA00313028009300210068168E
:103170000800031022000C1E03140318C028C328E3
:1031800022000C16C52822000C1223002108013E43
:103190000139F0007008A1002100E41608002200A7
:1031A000CA004630CB004B08CE00BA014508BC002F
:1031B0004408BB004E30CB004B08BD0093309D311E
:1031C000072D2200A2314A0882002100A900290807
:1031D000A80028082300D30053080319F028F12879
:1031E000F528220020140E14F828571722000E107C
:1031F0002300D71608007108F3007008F200F336B8
:10320000F20CF336F20C72082C009B0070080339A4
:10321000F2000530F235FF3E031D0A2972359A008F
:103220002300D416080020001B1D17291829222965
:103230001B1071089A00700899002100EA14200000
:103240001B14292971089A0021006A1470082000B3
:1032500099002100E91708007408803AF5008030D1
:103260007502031D352901307302031838293929E5
:1032700045297309F5007409F600F50A0319F60AE1
:103280007508F3007608F40045290800F400740876
:10329000F2007208F30050290130F2007208F407BE
:1032A00074088600013087000108031D5829592938
:1032B0004C2973087402F000F101F01BF1030800BF
:1032C00020009C019A01990111101A082300E100C5
:1032D000200019082300E000210011146C30A80020
:1032E0002630A900A7311F279931013020009B000B
:1032F00021006A1508002100AC002C08AA002A0849
:10330000AB0086290130AA002A08AC072C088600E9
:10331000013087000108031D8E298F2982292B087F
:103320002C02A800A901A81BA90308002100290854
:10333000AB002808AA00AB36AA0CAB36AA0C2A08A8
:103340002C009800210028080339AA000530AA356E
:10335000FF3E031DA7292A352C00970020006F1679
:10336000080021002908AB002808AA00AB36AA0CE7
:10337000AB36AA0C2A082C009B0021002808033930
:10338000AA000530AA35FF3E031DC2292A352C00AC
:103390009A0020006F1708002000901222006E088B
:1033A0002000960022006D082000950023005C0894
:1033B0005D040319DC29DD29E529210069142300B6
:1033C0005D088A005C080A0099312100E8170800AE
:1033D0002000111023006108F1006008F00099310D
:1033E0001321993123005E085F040319F829F92994
:1033F000012A2100691723005F088A005E080A007D
:103400009A312100E916080021003C08803ABD00ED
:1034100080303D02031D0E2A01303B020318112AA1
:10342000122A1F2A21003B09BD003C09BE00BD0A2B
:103430000319BE0A3D08BB003E08BC001F2A080055
:103440001030200098009601950116082200EE0029
:10345000200015082200ED00200090122100901697
:10346000C730A8002630A900A73114279A31903020
:10347000200097002100691508002100AB002B08EF
:10348000AA00AA0DAA0D1D082A0603392A069D00C6
:103490001D140D30890B4A2A000021009D149D182F
:1034A000522A532A4F2A1C08A9001B08A8002000F2
:1034B0006E1608002000AA01AA0A2708FB002608A9
:1034C000FA00FC019B3198239A31FB1B682A692A78
:1034D000772A0A30F2000030F300F4019031012025
:1034E0009A31F31B742A752A772A2000AA01080052
:1034F00000308B1B01302100AA008B1328083100FB
:1035000091002100290831009200151315140000C4
:10351000000021002A0C031C8B1303188B173100A9
:1035200014082100A900310013082100A8006A171F
:1035300008002100BD00C001C00A3C08B3003B08E0
:10354000B200B4019B31C3239A312100B31BA92AD5
:10355000AA2AB82A0A30AA000030AB00AC019D317B
:10356000B9259A312100AB1BB62AB72AB82AC00167
:1035700098313D088200F800F401F5017008F2006E
:10358000F3017208F6007308F700781CC82AC92AEC
:10359000CD2A7608F4077708F53D0130F635F70DAA
:1035A000890BCE2A0310F80C7808031DD82AD92AD3
:1035B000C52A7508F1007408F000080012309A312D
:1035C0003D229A31210029082300CB002100280840
:1035D0002300CA009D3174259A3121005C08230024
:1035E000CD0021005B082300CC009D313D259A31A0
:1035F0002100DD005D082300D200D301D30A561458
:1036000008002100B000AC01AD012808AA00AB0100
:103610002A08AE002B08AF00301C0F2B102B142BE8
:103620002E08AC072F08AD3D0130AE35AF0D890B2C
:10363000152B0310B00C3008031D1F2B202B0C2B57
:103640002D08A9002C08A800080000308B1B0130B1
:103650002100AB0029083100920021002808310028
:10366000910021002A0831009300151715158B13BE
:1036700055309600AA30960095149518402B412B92
:103680003D2B151121002B0C031C8B1303188B17DA
:10369000EA160800083023009F0090309D00343067
:1036A0009E0044309B009C0100302100A8000030A7
:1036B000A900A631F3269B3100302100A80000307C
:1036C000A900A631FE269B3100302100A800003061
:1036D000A900A631E8269B312200E0012000EF1569
:1036E000080021001D0C890C3F39AC002C08AF00EC
:1036F00015309A313D229B3121002908AE0028085F
:10370000AD002F08AC00AC0DAC0D1D082C06033924
:103710002C069D002E08A9002D08A800A73194278B
:103720009B312100AC002C082200E5002315080085
:103730002000A401A501AF2B2308A000A1012008AF
:10374000F2002108F3007C08A2002208F400903166
:1037500001209B3101302000A4070030A53D7A08EC
:10376000240784007B08253D85000008A000200870
:10377000A3002308031DBD2BBE2B9C2B2508FB009B
:103780002408FA0008002100B901BA01DA2B380830
:10379000B500B6013508AA003608AB003408B700FA
:1037A0003708AC009D31B9259B3101302100B907A4
:1037B0000030BA3D32083907840033083A3D8500AD
:1037C0000008B5003508B8003808031DE82BE92BC0
:1037D000C72B3A08B3003908B20008003B3021007B
:1037E000B9000030B8002030B7000830B6005008EB
:1037F000A8005108A900AA01AB0100309231E222D1
:103800009B3121002B08BD002A08BC002908BB0001
:103810002808BA0080317C209B3121003908D30070
:103820003808D2003708D1003608D00023005715D9
:1038300008003B302100B9000030B8002030B7004C
:103840000830B6005008A8005108A900AA01AB0131
:1038500000309231E2229C3121002B08BD002A0861
:10386000BC002908BB002808BA0080317C209C31AC
:1038700021003908D3003808D2003708D1003608B3
:10388000D0002200A5140800A731BD279C319C312F
:10389000D4249C31A73109279C318731FB279C31E7
:1038A000A73164279C31983190209C319A31202295
:1038B0009C31A73158279C31A73170279C31A63104
:1038C000DD269C319831A4209C31A7314C279C31B6
:1038D000993160219C319B314A239C3121006B1529
:1038E00008002000E5006108E7006008E60023000A
:1038F000A401A5018F2C6630CE000030CF006308F4
:10390000D1006208D0006508873109279C3120006A
:103910004E082300A40720004F082300A53D2000E7
:1039200066088400670885001200031D982C992CF6
:103930007B2C230025082000E10023002408200020
:10394000E000080021001D0C890C3F39D400540808
:10395000D70015309A313D229C3121002908D6002C
:103960002808D5005708D400D40DD40D1D085406DE
:10397000033954069D005608D1005508D0009C31EB
:1039800019249C31210053082200E4002100520830
:103990002200E300210051082200E200210050082B
:1039A0002200E100A315080022008C018E012330C3
:1039B00021008C003C308E00273023008E00043024
:1039C0008C00203024008C008E0125008C018E019B
:1039D000373026008C003F308E003F3027008C00AF
:1039E0003F308E0001303C00A40003303D00A100B8
:1039F0003C00A50115303D009100023092001430CA
:103A0000900014303C0091002100EA1508002200CB
:103A1000BE003C08C3003B08C2002300A401A5016E
:103A2000282D3A08BF003F08A9004230C0004008D6
:103A3000AA003D08C1004108AB00953089316229D8
:103A4000220029082300A40722002A082300A53DFC
:103A5000220042088400430885001200031D312D16
:103A6000322D112D230025082200BB00230024083D
:103A70002200BA00A2313E08820023004A08210039
:103A8000A80023004B082100A900AA01AB010030C7
:103A90009231E2229D3121002B08BD002A08BC0092
:103AA0002908BB002808BA003F30B9000030B80030
:103AB0000030B7000030B60080317C209D312100FD
:103AC0003908D3003808D2003708D1003608D000B2
:103AD00091312F219D3121005008DB005B0823002C
:103AE000D2005208D715080023004A082100A80078
:103AF00023004B082100A900AA01AB01003092313C
:103B0000E2229D3121002B08BD002A08BC002908B3
:103B1000BB002808BA000430CA3E86000130870086
:103B2000403FB600413FB700423FB800433FB900B5
:103B300080317C209D3121003908D3003808D20023
:103B40003708D1003608D00091312F219D31210056
:103B500051082300CD00210050082300CC004D085F
:103B60002100DC0023004C082100DB002300571655
:103B7000080021002C080319BE2DBF2DC42D2C08D0
:103B8000031DC32DC42DC92D2A08A631A1269D31A0
:103B9000F92D2C08033E8600870116000104031945
:103BA000D22DD32DF02D2C08033E86008701403FF7
:103BB000AD00413FAE002C0A86008701403FAF00B8
:103BC000413FB0003008803AB1002E08803A3102FF
:103BD000031DEC2D2D082F020318EF2DF02DF92DCC
:103BE00021002C0A8600870101308107413103182A
:103BF000810A21002A08AD00AE012D08AA002E0876
:103C0000AB0008000A30230052020318082E092EC8
:103C1000302ED714A63172269E31003A031D112E84
:103C2000122E2B2E23005714653022005C02031C39
:103C30001A2E1B2E222E2300D61701309831E52094
:103C40009E31482E2300561701302100AA002A0871
:103C50002200DC07482E2300D6162200DC01482E65
:103C60005616A63172269E31003A0319382E392E87
:103C70002B2E2300D615653022005C02031C412E3A
:103C8000422E222E2300561500309831E5209E3119
:103C90002300D6140800003021002805B0000030B1
:103CA0002905B10080302A05B2007F302B05B30012
:103CB0003308320431043004031D5F2E602E682E59
:103CC0000030AB000030AA000030A9000030A8008E
:103CD00000302C05B00000302D05B10080302E05DD
:103CE000B2007F302F05B3003308320431043004B2
:103CF000031D7B2E7C2E842E0030AF000030AE00E2
:103D00000030AD000030AC002F082B06031D922EB2
:103D10002E082A06031D922E2D082906031D922E19
:103D20002C0828060319952E962E982E0310992EEE
:103D300003140800103021001F06031DA02EA12E21
:103D4000B42E2300D51721001D0C890C3F39123ADF
:103D5000031DAB2EAC2EB42E2300551721001C08DA
:103D6000DE001B08DD00BF2E2300D51612309A316D
:103D70003D229E3121002908DE002808DD005E0872
:103D800023004B06031DC82E21005D0823004A06B0
:103D90000319CB2ECC2EDC2E21005E082300CB0095
:103DA00021005D082300CA009D3174259E31230047
:103DB00055169D313D259E3123004D082100A90057
:103DC00023004C082100A800993196219E319E3194
:103DD00002269E312300D515080015309A313D2268
:103DE0009E3121002908DE002808DD005E08D10090
:103DF0005D08D0009B31EE239E3121005308230043
:103E0000D100210052082300D000210051082300D6
:103E1000CF00210050082300CE0012309A313D22FD
:103E20009E3121002908DE002808DD005E082300FD
:103E30004B06031D1F2F21005D0823004A060319AE
:103E4000222F232F2C2F551521005E082300CB0095
:103E500021005D082300CA009D3174259E31230096
:103E60004D082100A90023004C082100A800993129
:103E700096219E319D313D259E319E3102269E31F7
:103E80002300D51408002100BF006C1C482F492FC7
:103E9000542F3C08B2000130B3003B08C00040087A
:103EA000B4009B31C3239F312100BE1B582F592FD3
:103EB0005E2F3E08C4003D08C300602FC301C4014B
:103EC000C101C201742F20302100AA000030AB00D4
:103ED0003B08C0004008AC009D31B9259F3101303E
:103EE0002100C1070030C23D4208803AC0004408AA
:103EF000803A4002031D7E2F43084102031C812F9C
:103F0000822F632F21006C18862F872F922F3C0859
:103F1000B2000130B3003B08C0004008B4009B3140
:103F2000C3239F3121003C0899317B219F3121001F
:103F300043082807BB004408293DBC00A2313F08C4
:103F400082002000AD0021006C1CA72FA82FB42FE9
:103F500020002608FA000130FB002D08FD007D0836
:103F6000FC009B3198239F312000A81BB82FB92F4C
:103F7000BE2F2808AC002708AB00C02FAB01AC0156
:103F8000A901AA01D42F2030F2000030F300200054
:103F90002D08FD007D08F400903101209F31013093
:103FA0002000A9070030AA3D2A08803AFD002C080D
:103FB000803A7D02031DDE2F2B082902031CE12F0E
:103FC000E22FC32F21006C18E62FE72FF32F2000DC
:103FD0002608FA000130FB002D08FD007D08FC00DA
:103FE0009B3198239F3120002608993146219F312B
:103FF00020002B087007A6002C08713DA7000800C0
:104000004534523452344F3452343A3420345234DA
:104010004534413444345F3443344F3452345234A1
:1040200045344334543449344F344E3420345534B9
:104030004E344B344E344F3457344E342034543491
:1040400059345034453420344934443445344E34A2
:1040500054344934463449344534523420340034DD
:104060005734413452344E3449344E344734213479
:10407000203455344E3443344F3452345234453462
:1040800043345434203443344F345234523445345E
:104090004334543449344F344E342034443441345E
:1040A00054344134203449344E342034453445347A
:1040B000503452344F344D342E340034453452345D
:1040C00052344F3452343A34203441345534543419
:1040D0004F345F3443344F344E34563445345234C5
:1040E000533449344F344E34203455344E344434F0
:1040F0004934463449344E34453444342034503401
:104100004134523441344D344534543452342E34D5
:104110002034003449344E3446344F343A34203459
:104120005334503444345F344134443444345F3481
:1041300043344F34523452342034523445344134B1
:104140004434453444342034463452344F344D34AE
:10415000203445344534503452344F344D342E34A9
:1041600000344534523452344F3452343A342034CB
:10417000573452344F344E34473420344C34453461
:1041800044342034543449344D344534523420348A
:10419000463455344E344334543449344F344E3419
:1041A0002034433441344C344C342E3400344934BC
:1041B0004E3446344F343A3420345334503444343B
:1041C0005F344D3455344C345F3443344F345234BF
:1041D000523420345334413456344534443420343A
:1041E00041345434203445344534503452344F34FF
:1041F0004D342E3400345734413452344E34493423
:104200004E3447343A3420344234553454345434E0
:104210004F344E34203443344F3455344E345434B8
:104220004534523420344F345634453452344634B5
:104230004C344F3457342E34003449344E344634E1
:104240004F343A3420344634553445344C345F349A
:1042500043344F345234523420345334413456347E
:1042600045344434203441345434203445344534C6
:10427000503452344F344D342E34003449344E349B
:1042800046344F343A3420345334503444345F3459
:104290004134443444345F3443344F345234523420
:1042A000203452344534413444342034533455346A
:1042B000433443344534533453342E340034493476
:1042C0004E3446344F343A3420345334503444342A
:1042D0005F344D3455344C345F3443344F345234AE
:1042E000523420345234453441344434203453342D
:1042F0005534433443344534533453342E3400342A
:104300004534523452344F3452343A3420344234E7
:104310005534543454344F344E34203455344E34A0
:1043200044344934463449344E34453444342034DA
:10433000563441344C34553445342E3400344934E9
:104340004E3446344F343A342034463455344534B0
:104350004C345F3443344F3452345234203452346A
:104360004534413444342034533455344334433495
:104370004534533453342E34003449344E344634A7
:104380004F343A34203442345534543454344F3456
:104390004E34203443344F3455344E345434453441
:1043A00052342034493453342034253464340A34AC
:1043B0002E3400344534523452344F3452343A346B
:1043C00020344C3445344434203443344F34553451
:1043D0004E3454344534523420344F3456344534FA
:1043E000523446344C344F3457342E340034453430
:1043F000723472346F3472343A342034533450345B
:104400004434203463346F3475346E34743465341A
:10441000723420346F3476346534723466346C34DC
:104420006F3477342134003449344E3446344F34B9
:104430003A342034523465347634493444342034A8
:10444000253464340A34443465347634693463344E
:104450006534493444342034253464340A34003417
:104460004534523452344F3452343A3420344D347B
:1044700045344E345534203455344E344B344E3458
:104480004F3457344E34203453345434413454343C
:1044900045342E34003449344E3446344F343A34A3
:1044A000203442345534543454344F344E34203450
:1044B0004934533420345034523445345334533413
:1044C000453444342E3400344534523452344F345D
:1044D00052343A342034573452344F344E34473403
:1044E00020344C344534443420344D344F34443437
:1044F00045342E34003486310F2E8631752E8631A8
:10450000BD2E9131FB299231292A85314F2D9031D1
:10451000A42885316E2D8531A32D9131AA299231A0
:10452000012A8E31E52E9831E1289D31202D8931E7
:06453000FA298C31F62C83
:104CD8002100E91508002100E71708002300530800
:104CE8005514080022006508A5150800F000700892
:104CF80028009D00230054150800F1007108A73111
:104D0800A027A6312300D415080022000C16230082
:104D1800A101A10A2100E4170800F1007108F000C0
:104D280070082300A000D41408002100A800280857
:104D380028009D002100671608002100A900290805
:104D4800A731CD27A6312000EF1408002100A900C3
:104D58002908A80028082200E500251508002000D9
:104D68000E0C2100A800A80C280C01392200A71558
:104D780008002100A9002908A80028082300A0008D
:104D8800210065140800F7302000A600A130A70014
:104D98009A315A22A6312100E816080022006E082E
:104DA8002000960022006D08200095002100E914DB
:104DB8000800A03021009E009F019B019C0101304A
:104DC8009D002000EE160800210029082300E300BA
:104DD800210028082300E20020006E1708002100A7
:104DE80029082300E700210028082300E600200006
:104DF8006F140800210029082300E5002100280875
:104E08002300E4002000EE1708006030320099000B
:104E18009B019D0107309F009E012100EB140800B3
:104E2800210029082300DD00210028082300DC00D8
:104E3800210068170800210029082300DF0021004D
:104E480028082300DE00210069160800210029082F
:104E58002300D900210028082300D8002100681465
:104E68000800220066086704031D3B2F3D2F013010
:104E78003E2F0030A6140800220066086704031DB0
:104E8800462F482F0130492F0030230054140800C2
:104E980080302C009900980197011F08FC390238CE
:104EA8009F002000EF16080080302C009C007F3007
:104EB8009B00C0309A000C309F042000EF170800B8
:104EC800FF30280096009501200092100530280038
:104ED8009700210067170800FF3028009D009C01FB
:104EE80020009213073028009E002100E7160800D2
:104EF800A631B326A7312100A90029082200D7002E
:104F0800D801D9012716080022005F08013E03399D
:104F18002100A80028082200DF00210065150800EC
:104F280021002808AA000130AA35FF3E031D982F4A
:104F38002A35220025140800F00023009D121D12B6
:104F48002000111EA82FA92FA42F700823009A0053
:104F5800541608002100C1003030BB00A030BC004E
:104F680012309A31992A2200A3142100A231410853
:104F78008200413032009100803092004630930028
:104F8800CF309400063095001F3096002100EA17B4
:104F980008002100A80023009D121D122000111EE8
:104FA800D62FD72FD22F2100280823009A002000BF
:104FB8006F1508000430CA3E860001308700403F64
:104FC8002100A800413FA900423FAA00433FAB008F
:104FD8002300D417080002302100A8002808230065
:104FE800A00022000C162300A101A10AA301A2011E
:104FF800A20A2100E5140800533450344434203404
:105008002534643420345034523420342534643404
:1050180000345334503444345F34443455345434B5
:0A5028005934203425346434003478
:020000040001F9
:08000000FF3FFF3FFF3FFF3F00
:08000E008C17F11DFF1FFF3FDD
:00000001FF
